{
  "contractName": "Chirp",
  "abi": [
    {
      "inputs": [
        {
          "internalType": "address",
          "name": "_register",
          "type": "address"
        },
        {
          "internalType": "address",
          "name": "_spaceLogic",
          "type": "address"
        },
        {
          "internalType": "address",
          "name": "_defaultGuardian",
          "type": "address"
        }
      ],
      "stateMutability": "nonpayable",
      "type": "constructor"
    },
    {
      "stateMutability": "payable",
      "type": "fallback"
    },
    {
      "stateMutability": "payable",
      "type": "receive"
    },
    {
      "inputs": [
        {
          "internalType": "address",
          "name": "_owner",
          "type": "address"
        }
      ],
      "name": "setOwner",
      "outputs": [],
      "stateMutability": "nonpayable",
      "type": "function"
    },
    {
      "inputs": [],
      "name": "getOwner",
      "outputs": [
        {
          "internalType": "address",
          "name": "",
          "type": "address"
        }
      ],
      "stateMutability": "view",
      "type": "function"
    },
    {
      "inputs": [
        {
          "internalType": "address",
          "name": "_register",
          "type": "address"
        }
      ],
      "name": "setRegister",
      "outputs": [],
      "stateMutability": "nonpayable",
      "type": "function"
    },
    {
      "inputs": [],
      "name": "getRegister",
      "outputs": [
        {
          "internalType": "address",
          "name": "",
          "type": "address"
        }
      ],
      "stateMutability": "view",
      "type": "function"
    }
  ],
  "bytecode": "0x608060405234801561001057600080fd5b5060405161058838038061058883398181016040528101906100329190610152565b336000806101000a81548173ffffffffffffffffffffffffffffffffffffffff021916908373ffffffffffffffffffffffffffffffffffffffff16021790555082600160006101000a81548173ffffffffffffffffffffffffffffffffffffffff021916908373ffffffffffffffffffffffffffffffffffffffff16021790555080600260006101000a81548173ffffffffffffffffffffffffffffffffffffffff021916908373ffffffffffffffffffffffffffffffffffffffff16021790555081600360006101000a81548173ffffffffffffffffffffffffffffffffffffffff021916908373ffffffffffffffffffffffffffffffffffffffff1602179055505050506101ea565b60008151905061014c816101d3565b92915050565b60008060006060848603121561016757600080fd5b60006101758682870161013d565b93505060206101868682870161013d565b92505060406101978682870161013d565b9150509250925092565b60006101ac826101b3565b9050919050565b600073ffffffffffffffffffffffffffffffffffffffff82169050919050565b6101dc816101a1565b81146101e757600080fd5b50565b61038f806101f96000396000f3fe6080604052600436106100435760003560e01c806313af40351461007657806359ce3b481461009f5780636d6c780b146100c8578063893d20e8146100f35761004a565b3661004a57005b60405136806000833760008082846001545af43d9150816000843e8060008114610072578284f35b8284fd5b34801561008257600080fd5b5061009d600480360381019061009891906102bd565b61011e565b005b3480156100ab57600080fd5b506100c660048036038101906100c191906102bd565b6101b9565b005b3480156100d457600080fd5b506100dd610255565b6040516100ea91906102f5565b60405180910390f35b3480156100ff57600080fd5b5061010861027f565b60405161011591906102f5565b60405180910390f35b60008054906101000a900473ffffffffffffffffffffffffffffffffffffffff1673ffffffffffffffffffffffffffffffffffffffff163373ffffffffffffffffffffffffffffffffffffffff161461017657600080fd5b806000806101000a81548173ffffffffffffffffffffffffffffffffffffffff021916908373ffffffffffffffffffffffffffffffffffffffff16021790555050565b60008054906101000a900473ffffffffffffffffffffffffffffffffffffffff1673ffffffffffffffffffffffffffffffffffffffff163373ffffffffffffffffffffffffffffffffffffffff161461021157600080fd5b80600160006101000a81548173ffffffffffffffffffffffffffffffffffffffff021916908373ffffffffffffffffffffffffffffffffffffffff16021790555050565b6000600160009054906101000a900473ffffffffffffffffffffffffffffffffffffffff16905090565b60008060009054906101000a900473ffffffffffffffffffffffffffffffffffffffff16905090565b6000813590506102b781610342565b92915050565b6000602082840312156102cf57600080fd5b60006102dd848285016102a8565b91505092915050565b6102ef81610310565b82525050565b600060208201905061030a60008301846102e6565b92915050565b600061031b82610322565b9050919050565b600073ffffffffffffffffffffffffffffffffffffffff82169050919050565b61034b81610310565b811461035657600080fd5b5056fea26469706673582212203cc7c611e4fee244c2d5508cd65484d17f5ba9af56fe0b169a4f36f669cf5b0a64736f6c63430008010033",
  "immutableReferences": {},
  "source": "// SPDX-License-Identifier: MIT\npragma solidity 0.8.1;\n\nimport \"./interfaces/IChirp.sol\";\n\ncontract Chirp is IChirp {\n\n    address private owner;\n    address private registerLogic;\n    address private defaultGuardian;\n    address private spaceLogic;\n    uint64 latencyTime;\n\n    constructor(address _register, address _spaceLogic, address _defaultGuardian){\n        owner = msg.sender;\n        registerLogic = _register;\n        defaultGuardian = _defaultGuardian;\n        spaceLogic = _spaceLogic;\n    }\n\n    function setOwner(address _owner) external override {\n        require(msg.sender == owner);\n        owner = _owner;\n    }\n\n    function getOwner() external view override returns (address) {\n        return owner;\n    }\n\n    function setRegister(address _register) external override {\n        require(msg.sender == owner);\n        registerLogic = _register;\n    }\n\n    function getRegister() external view override returns (address) {\n        return registerLogic;\n    }\n\n    receive() external payable {}\n\n    fallback() payable external {\n        assembly {\n            let ptr := mload(0x40)\n            let size := calldatasize()\n            calldatacopy(ptr, 0, size)\n            let result := delegatecall\n    (gas(), sload(registerLogic.slot), ptr, size, 0, 0)\n    size := returndatasize()\n    returndatacopy(ptr, 0, size)\n    switch result\n    case 0 {revert(ptr, size)}\n    default {return (ptr, size)}\n    }\n}\n}\n",
  "sourcePath": "/Users/matrix/github/std_contracts/contracts/Chirp.sol",
  "compiler": {
    "name": "solc",
    "version": "0.8.1+commit.df193b15.Emscripten.clang"
  },
  "schemaVersion": "3.2.4",
  "updatedAt": "2021-02-03T10:19:51.699Z",
  "devdoc": {
    "kind": "dev",
    "methods": {},
    "version": 1
  },
  "userdoc": {
    "kind": "user",
    "methods": {},
    "version": 1
  }
}