{
  "contractName": "RegistryLogic",
  "abi": [
    {
      "anonymous": false,
      "inputs": [
        {
          "indexed": true,
          "internalType": "bytes32",
          "name": "accountName",
          "type": "bytes32"
        },
        {
          "indexed": true,
          "internalType": "address",
          "name": "owner",
          "type": "address"
        },
        {
          "indexed": false,
          "internalType": "address",
          "name": "successor",
          "type": "address"
        },
        {
          "indexed": false,
          "internalType": "address",
          "name": "guardian",
          "type": "address"
        }
      ],
      "name": "Register",
      "type": "event"
    },
    {
      "anonymous": false,
      "inputs": [
        {
          "indexed": true,
          "internalType": "bytes32",
          "name": "accountName",
          "type": "bytes32"
        },
        {
          "indexed": true,
          "internalType": "address",
          "name": "owner",
          "type": "address"
        }
      ],
      "name": "SwitchOwner",
      "type": "event"
    },
    {
      "inputs": [
        {
          "internalType": "bytes32",
          "name": "",
          "type": "bytes32"
        }
      ],
      "name": "spaceTable",
      "outputs": [
        {
          "internalType": "address",
          "name": "",
          "type": "address"
        }
      ],
      "stateMutability": "view",
      "type": "function"
    },
    {
      "inputs": [
        {
          "internalType": "bytes32",
          "name": "accountName",
          "type": "bytes32"
        },
        {
          "internalType": "address",
          "name": "successor",
          "type": "address"
        },
        {
          "internalType": "address",
          "name": "guardian",
          "type": "address"
        }
      ],
      "name": "register",
      "outputs": [
        {
          "internalType": "bool",
          "name": "",
          "type": "bool"
        }
      ],
      "stateMutability": "nonpayable",
      "type": "function"
    },
    {
      "inputs": [
        {
          "internalType": "bytes32",
          "name": "accountName",
          "type": "bytes32"
        }
      ],
      "name": "switchOwner",
      "outputs": [],
      "stateMutability": "nonpayable",
      "type": "function"
    },
    {
      "inputs": [
        {
          "internalType": "address",
          "name": "_successor",
          "type": "address"
        }
      ],
      "name": "setSuccessor",
      "outputs": [],
      "stateMutability": "nonpayable",
      "type": "function"
    },
    {
      "inputs": [
        {
          "internalType": "address",
          "name": "_guardian",
          "type": "address"
        }
      ],
      "name": "setGuardian",
      "outputs": [],
      "stateMutability": "nonpayable",
      "type": "function"
    },
    {
      "inputs": [
        {
          "internalType": "address",
          "name": "_owner",
          "type": "address"
        }
      ],
      "name": "getAccountNameByOwner",
      "outputs": [
        {
          "internalType": "bytes32",
          "name": "",
          "type": "bytes32"
        }
      ],
      "stateMutability": "view",
      "type": "function"
    },
    {
      "inputs": [
        {
          "internalType": "bytes32",
          "name": "accountName",
          "type": "bytes32"
        }
      ],
      "name": "getOwnerByAccountName",
      "outputs": [
        {
          "internalType": "address",
          "name": "",
          "type": "address"
        }
      ],
      "stateMutability": "view",
      "type": "function"
    },
    {
      "inputs": [
        {
          "internalType": "address",
          "name": "_owner",
          "type": "address"
        }
      ],
      "name": "getSuccessor",
      "outputs": [
        {
          "internalType": "address",
          "name": "",
          "type": "address"
        }
      ],
      "stateMutability": "view",
      "type": "function"
    },
    {
      "inputs": [
        {
          "internalType": "address",
          "name": "_owner",
          "type": "address"
        }
      ],
      "name": "getGuardian",
      "outputs": [
        {
          "internalType": "address",
          "name": "",
          "type": "address"
        }
      ],
      "stateMutability": "view",
      "type": "function"
    },
    {
      "inputs": [],
      "name": "getDefaultGuardian",
      "outputs": [
        {
          "internalType": "address",
          "name": "",
          "type": "address"
        }
      ],
      "stateMutability": "view",
      "type": "function"
    },
    {
      "inputs": [
        {
          "internalType": "address",
          "name": "_newLogic",
          "type": "address"
        }
      ],
      "name": "setSpace",
      "outputs": [],
      "stateMutability": "nonpayable",
      "type": "function"
    },
    {
      "inputs": [],
      "name": "getSpaceLogic",
      "outputs": [
        {
          "internalType": "address",
          "name": "",
          "type": "address"
        }
      ],
      "stateMutability": "view",
      "type": "function"
    },
    {
      "inputs": [
        {
          "internalType": "bytes32",
          "name": "accountName",
          "type": "bytes32"
        }
      ],
      "name": "getSpaceByAccountName",
      "outputs": [
        {
          "internalType": "address",
          "name": "",
          "type": "address"
        }
      ],
      "stateMutability": "view",
      "type": "function"
    },
    {
      "inputs": [
        {
          "internalType": "address",
          "name": "_owner",
          "type": "address"
        }
      ],
      "name": "getSpaceByOwner",
      "outputs": [
        {
          "internalType": "address",
          "name": "",
          "type": "address"
        }
      ],
      "stateMutability": "view",
      "type": "function"
    }
  ],
  "bytecode": "0x608060405234801561001057600080fd5b50611a7b806100206000396000f3fe60806040523480156200001157600080fd5b5060043610620001005760003560e01c80638770263c1162000099578063966dfe7a116200006f578063966dfe7a14620002b5578063a069fd1f14620002eb578063b301d902146200030d578063e5fc1f6c14620003435762000100565b80638770263c14620002295780638a0dac4a146200025f57806394ee7d68146200027f5762000100565b80634388be5d11620000db5780634388be5d14620001655780635617ea09146200019b5780635c37d1b814620001d15780637bcf7a7914620002075762000100565b806303b40534146200010557806310e5bff8146200012557806329afd62c1462000145575b600080fd5b6200012360048036038101906200011d9190620014e1565b62000379565b005b6200014360048036038101906200013d9190620014e1565b62000416565b005b6200016360048036038101906200015d91906200150d565b62000535565b005b6200018360048036038101906200017d9190620014e1565b62000d6a565b60405162000192919062001629565b60405180910390f35b620001b96004803603810190620001b391906200150d565b62000db3565b604051620001c89190620015c2565b60405180910390f35b620001ef6004803603810190620001e991906200150d565b62000df0565b604051620001fe9190620015c2565b60405180910390f35b6200021162000e23565b604051620002209190620015c2565b60405180910390f35b620002476004803603810190620002419190620014e1565b62000e4d565b604051620002569190620015c2565b60405180910390f35b6200027d6004803603810190620002779190620014e1565b62000ece565b005b6200029d60048036038101906200029791906200150d565b62000fed565b604051620002ac9190620015c2565b60405180910390f35b620002d36004803603810190620002cd9190620014e1565b6200102a565b604051620002e29190620015c2565b60405180910390f35b620002f562001093565b604051620003049190620015c2565b60405180910390f35b6200032b6004803603810190620003259190620014e1565b620010bd565b6040516200033a9190620015c2565b60405180910390f35b6200036160048036038101906200035b919062001539565b62001126565b6040516200037091906200160c565b60405180910390f35b60008054906101000a900473ffffffffffffffffffffffffffffffffffffffff1673ffffffffffffffffffffffffffffffffffffffff163373ffffffffffffffffffffffffffffffffffffffff1614620003d257600080fd5b80600360006101000a81548173ffffffffffffffffffffffffffffffffffffffff021916908373ffffffffffffffffffffffffffffffffffffffff16021790555050565b620004206200146b565b81816000019073ffffffffffffffffffffffffffffffffffffffff16908173ffffffffffffffffffffffffffffffffffffffff168152505042816020019067ffffffffffffffff16908167ffffffffffffffff168152505080600760003373ffffffffffffffffffffffffffffffffffffffff1673ffffffffffffffffffffffffffffffffffffffff16815260200190815260200160002060008201518160000160006101000a81548173ffffffffffffffffffffffffffffffffffffffff021916908373ffffffffffffffffffffffffffffffffffffffff16021790555060208201518160000160146101000a81548167ffffffffffffffff021916908367ffffffffffffffff1602179055509050505050565b60006005600083815260200190815260200160002060009054906101000a900473ffffffffffffffffffffffffffffffffffffffff1690506000600960008373ffffffffffffffffffffffffffffffffffffffff1673ffffffffffffffffffffffffffffffffffffffff1681526020019081526020016000206040518060400160405290816000820160009054906101000a900473ffffffffffffffffffffffffffffffffffffffff1673ffffffffffffffffffffffffffffffffffffffff1673ffffffffffffffffffffffffffffffffffffffff1681526020016000820160149054906101000a900467ffffffffffffffff1667ffffffffffffffff1667ffffffffffffffff16815250509050600080826020015167ffffffffffffffff161180156200069357508160200151600360149054906101000a900467ffffffffffffffff1662000686919062001646565b67ffffffffffffffff1642115b15620007a8578160000151905080600860008573ffffffffffffffffffffffffffffffffffffffff1673ffffffffffffffffffffffffffffffffffffffff16815260200190815260200160002060006101000a81548173ffffffffffffffffffffffffffffffffffffffff021916908373ffffffffffffffffffffffffffffffffffffffff160217905550600960008473ffffffffffffffffffffffffffffffffffffffff1673ffffffffffffffffffffffffffffffffffffffff168152602001908152602001600020600080820160006101000a81549073ffffffffffffffffffffffffffffffffffffffff02191690556000820160146101000a81549067ffffffffffffffff021916905550506200080b565b600860008473ffffffffffffffffffffffffffffffffffffffff1673ffffffffffffffffffffffffffffffffffffffff16815260200190815260200160002060009054906101000a900473ffffffffffffffffffffffffffffffffffffffff1690505b600073ffffffffffffffffffffffffffffffffffffffff168373ffffffffffffffffffffffffffffffffffffffff16141580156200093d57503373ffffffffffffffffffffffffffffffffffffffff168373ffffffffffffffffffffffffffffffffffffffff161480620008aa57503373ffffffffffffffffffffffffffffffffffffffff168173ffffffffffffffffffffffffffffffffffffffff16145b806200093c5750600073ffffffffffffffffffffffffffffffffffffffff168173ffffffffffffffffffffffffffffffffffffffff161480156200093b57503373ffffffffffffffffffffffffffffffffffffffff16600260009054906101000a900473ffffffffffffffffffffffffffffffffffffffff1673ffffffffffffffffffffffffffffffffffffffff16145b5b5b6200094757600080fd5b6000600760008573ffffffffffffffffffffffffffffffffffffffff1673ffffffffffffffffffffffffffffffffffffffff1681526020019081526020016000206040518060400160405290816000820160009054906101000a900473ffffffffffffffffffffffffffffffffffffffff1673ffffffffffffffffffffffffffffffffffffffff1673ffffffffffffffffffffffffffffffffffffffff1681526020016000820160149054906101000a900467ffffffffffffffff1667ffffffffffffffff1667ffffffffffffffff16815250509050600080826020015167ffffffffffffffff1611801562000a6d57508160200151600360149054906101000a900467ffffffffffffffff1662000a60919062001646565b67ffffffffffffffff1642115b1562000b045781600001519050600760008673ffffffffffffffffffffffffffffffffffffffff1673ffffffffffffffffffffffffffffffffffffffff168152602001908152602001600020600080820160006101000a81549073ffffffffffffffffffffffffffffffffffffffff02191690556000820160146101000a81549067ffffffffffffffff0219169055505062000b67565b600660008673ffffffffffffffffffffffffffffffffffffffff1673ffffffffffffffffffffffffffffffffffffffff16815260200190815260200160002060009054906101000a900473ffffffffffffffffffffffffffffffffffffffff1690505b806005600088815260200190815260200160002060006101000a81548173ffffffffffffffffffffffffffffffffffffffff021916908373ffffffffffffffffffffffffffffffffffffffff16021790555085600460008373ffffffffffffffffffffffffffffffffffffffff1673ffffffffffffffffffffffffffffffffffffffff16815260200190815260200160002081905550600460008673ffffffffffffffffffffffffffffffffffffffff1673ffffffffffffffffffffffffffffffffffffffff168152602001908152602001600020600090556000600a600088815260200190815260200160002060009054906101000a900473ffffffffffffffffffffffffffffffffffffffff169050600073ffffffffffffffffffffffffffffffffffffffff168173ffffffffffffffffffffffffffffffffffffffff161462000d1d578073ffffffffffffffffffffffffffffffffffffffff16639922b6ac836040518263ffffffff1660e01b815260040162000ce89190620015c2565b600060405180830381600087803b15801562000d0357600080fd5b505af115801562000d18573d6000803e3d6000fd5b505050505b8173ffffffffffffffffffffffffffffffffffffffff16877f8cf04e656ab329318f7af69e3748ef13a287710159fecdd59da8679a92038b8860405160405180910390a350505050505050565b6000600460008373ffffffffffffffffffffffffffffffffffffffff1673ffffffffffffffffffffffffffffffffffffffff168152602001908152602001600020549050919050565b6000600a600083815260200190815260200160002060009054906101000a900473ffffffffffffffffffffffffffffffffffffffff169050919050565b600a6020528060005260406000206000915054906101000a900473ffffffffffffffffffffffffffffffffffffffff1681565b6000600360009054906101000a900473ffffffffffffffffffffffffffffffffffffffff16905090565b600080600460008473ffffffffffffffffffffffffffffffffffffffff1673ffffffffffffffffffffffffffffffffffffffff168152602001908152602001600020549050600a600082815260200190815260200160002060009054906101000a900473ffffffffffffffffffffffffffffffffffffffff16915050919050565b62000ed86200146b565b81816000019073ffffffffffffffffffffffffffffffffffffffff16908173ffffffffffffffffffffffffffffffffffffffff168152505042816020019067ffffffffffffffff16908167ffffffffffffffff168152505080600960003373ffffffffffffffffffffffffffffffffffffffff1673ffffffffffffffffffffffffffffffffffffffff16815260200190815260200160002060008201518160000160006101000a81548173ffffffffffffffffffffffffffffffffffffffff021916908373ffffffffffffffffffffffffffffffffffffffff16021790555060208201518160000160146101000a81548167ffffffffffffffff021916908367ffffffffffffffff1602179055509050505050565b60006005600083815260200190815260200160002060009054906101000a900473ffffffffffffffffffffffffffffffffffffffff169050919050565b6000600660008373ffffffffffffffffffffffffffffffffffffffff1673ffffffffffffffffffffffffffffffffffffffff16815260200190815260200160002060009054906101000a900473ffffffffffffffffffffffffffffffffffffffff169050919050565b6000600260009054906101000a900473ffffffffffffffffffffffffffffffffffffffff16905090565b6000600860008373ffffffffffffffffffffffffffffffffffffffff1673ffffffffffffffffffffffffffffffffffffffff16815260200190815260200160002060009054906101000a900473ffffffffffffffffffffffffffffffffffffffff169050919050565b60008073ffffffffffffffffffffffffffffffffffffffff166005600086815260200190815260200160002060009054906101000a900473ffffffffffffffffffffffffffffffffffffffff1673ffffffffffffffffffffffffffffffffffffffff161415620013e257336005600086815260200190815260200160002060006101000a81548173ffffffffffffffffffffffffffffffffffffffff021916908373ffffffffffffffffffffffffffffffffffffffff16021790555083600460003373ffffffffffffffffffffffffffffffffffffffff1673ffffffffffffffffffffffffffffffffffffffff1681526020019081526020016000208190555082600660003373ffffffffffffffffffffffffffffffffffffffff1673ffffffffffffffffffffffffffffffffffffffff16815260200190815260200160002060006101000a81548173ffffffffffffffffffffffffffffffffffffffff021916908373ffffffffffffffffffffffffffffffffffffffff16021790555081600860003373ffffffffffffffffffffffffffffffffffffffff1673ffffffffffffffffffffffffffffffffffffffff16815260200190815260200160002060006101000a81548173ffffffffffffffffffffffffffffffffffffffff021916908373ffffffffffffffffffffffffffffffffffffffff1602179055506000620013308533620013ee565b905080600a600087815260200190815260200160002060006101000a81548173ffffffffffffffffffffffffffffffffffffffff021916908373ffffffffffffffffffffffffffffffffffffffff1602179055503373ffffffffffffffffffffffffffffffffffffffff16857f0e882dc812802fb44e28d79d78adb36cfd6dc3e9e0ac51dec8f4809e36dd18038686604051620013cf929190620015df565b60405180910390a36001915050620013e7565b600090505b9392505050565b6000808360405160200162001404919062001629565b60405160208183030381529060405280519060200120905060008184306040516200142f90620014a5565b6200143c929190620015df565b8190604051809103906000f59050801580156200145d573d6000803e3d6000fd5b509050809250505092915050565b6040518060400160405280600073ffffffffffffffffffffffffffffffffffffffff168152602001600067ffffffffffffffff1681525090565b6102f9806200174d83390190565b600081359050620014c48162001718565b92915050565b600081359050620014db8162001732565b92915050565b600060208284031215620014f457600080fd5b60006200150484828501620014b3565b91505092915050565b6000602082840312156200152057600080fd5b60006200153084828501620014ca565b91505092915050565b6000806000606084860312156200154f57600080fd5b60006200155f86828701620014ca565b93505060206200157286828701620014b3565b92505060406200158586828701620014b3565b9150509250925092565b6200159a816200168b565b82525050565b620015ab816200169f565b82525050565b620015bc81620016ab565b82525050565b6000602082019050620015d960008301846200158f565b92915050565b6000604082019050620015f660008301856200158f565b6200160560208301846200158f565b9392505050565b6000602082019050620016236000830184620015a0565b92915050565b6000602082019050620016406000830184620015b1565b92915050565b60006200165382620016d5565b91506200166083620016d5565b92508267ffffffffffffffff0382111562001680576200167f620016e9565b5b828201905092915050565b60006200169882620016b5565b9050919050565b60008115159050919050565b6000819050919050565b600073ffffffffffffffffffffffffffffffffffffffff82169050919050565b600067ffffffffffffffff82169050919050565b7f4e487b7100000000000000000000000000000000000000000000000000000000600052601160045260246000fd5b62001723816200168b565b81146200172f57600080fd5b50565b6200173d81620016ab565b81146200174957600080fd5b5056fe608060405234801561001057600080fd5b506040516102f93803806102f9833981810160405281019061003291906100cf565b816000806101000a81548173ffffffffffffffffffffffffffffffffffffffff021916908373ffffffffffffffffffffffffffffffffffffffff16021790555080600160006101000a81548173ffffffffffffffffffffffffffffffffffffffff021916908373ffffffffffffffffffffffffffffffffffffffff1602179055505050610154565b6000815190506100c98161013d565b92915050565b600080604083850312156100e257600080fd5b60006100f0858286016100ba565b9250506020610101858286016100ba565b9150509250929050565b60006101168261011d565b9050919050565b600073ffffffffffffffffffffffffffffffffffffffff82169050919050565b6101468161010b565b811461015157600080fd5b50565b610196806101636000396000f3fe60806040523661000b57005b6000600160009054906101000a900473ffffffffffffffffffffffffffffffffffffffff1673ffffffffffffffffffffffffffffffffffffffff16637bcf7a796040518163ffffffff1660e01b815260040160206040518083038186803b15801561007557600080fd5b505afa158015610089573d6000803e3d6000fd5b505050506040513d601f19601f820116820180604052508101906100ad91906100ee565b90506040513680600083376000808284865af43d9150816000843e80600081146100d5578284f35b8284fd5b6000815190506100e881610149565b92915050565b60006020828403121561010057600080fd5b600061010e848285016100d9565b91505092915050565b600061012282610129565b9050919050565b600073ffffffffffffffffffffffffffffffffffffffff82169050919050565b61015281610117565b811461015d57600080fd5b5056fea26469706673582212209ef4fbf6d2120e863186d5ff2fafa21178b8dc73862cbe10ad88f6e9c66e5ee764736f6c63430008010033a264697066735822122002d6e4dcc54a6e5920c8da06073df4de51b114bc2db828846f291aad1b56b8ff64736f6c63430008010033",
  "immutableReferences": {},
  "source": "// SPDX-License-Identifier: MIT\npragma solidity 0.8.1;\n\nimport \"./interfaces/IRegistry.sol\";\nimport \"./Space.sol\";\n\ncontract RegistryLogic is IRegistry {\n\n    struct bakAddressInfo {\n        address bakAddress;\n        uint64 startTime;\n    }\n\n    address private owner; //placeholder\n    address private registerLogic; //placeholder\n    address private defaultGuardian; //placeholder\n    address private spaceLogic; //placeholder\n    uint64 latencyTime; //placeholder\n    mapping(address => bytes32) private ownerToName;\n    mapping(bytes32 => address) private nameToOwner;\n    mapping(address => address) private ownerToSuccessor;\n    mapping(address => bakAddressInfo) private ownerToSuccessorBak;\n    mapping(address => address) private ownerToGuardian;\n    mapping(address => bakAddressInfo) private ownerToGuardianBak;\n    mapping(bytes32 => address) public spaceTable;\n\n    //todo: support change name\n    function register(bytes32 accountName, address successor, address guardian) external override returns (bool) {\n        if (nameToOwner[accountName] == address(0)) {\n            nameToOwner[accountName] = msg.sender;\n            ownerToName[msg.sender] = accountName;\n            ownerToSuccessor[msg.sender] = successor;\n            ownerToGuardian[msg.sender] = guardian;\n            address spaceAddr = newSpace(accountName, msg.sender);\n            spaceTable[accountName] = spaceAddr;\n            emit Register(accountName, msg.sender, successor, guardian);\n            return true;\n        }\n        return false;\n    }\n\n    //by owner, guardian\n    function switchOwner(bytes32 accountName) external override {\n        address _owner = nameToOwner[accountName];\n        bakAddressInfo memory guardianInfo = ownerToGuardianBak[_owner];\n        address _guardian;\n        if (guardianInfo.startTime > 0 && block.timestamp > latencyTime + guardianInfo.startTime) {\n            _guardian = guardianInfo.bakAddress;\n            ownerToGuardian[_owner] = _guardian;\n            delete ownerToGuardianBak[_owner];\n        } else {\n            _guardian = ownerToGuardian[_owner];\n        }\n        require(_owner != address(0) && (_owner == msg.sender || _guardian == msg.sender || (_guardian == address(0) && defaultGuardian == msg.sender)));\n        bakAddressInfo memory info = ownerToSuccessorBak[_owner];\n        address _successor;\n        if (info.startTime > 0 && block.timestamp > latencyTime + info.startTime) {\n            _successor = info.bakAddress;\n            delete ownerToSuccessorBak[_owner];\n        } else {\n            _successor = ownerToSuccessor[_owner];\n        }\n        nameToOwner[accountName] = _successor;\n        ownerToName[_successor] = accountName;\n        delete ownerToName[_owner];\n        address space = spaceTable[accountName];\n        if (space != address(0)) {\n            IMySpace(space).switchToNewOwner(_successor);\n        }\n        emit SwitchOwner(accountName, _successor);\n    }\n\n    function setSuccessor(address _successor) external override {\n        bakAddressInfo memory info;\n        info.bakAddress = _successor;\n        info.startTime = uint64(block.timestamp);\n        ownerToSuccessorBak[msg.sender] = info;\n    }\n\n    function setGuardian(address _guardian) external override {\n        bakAddressInfo memory info;\n        info.bakAddress = _guardian;\n        info.startTime = uint64(block.timestamp);\n        ownerToGuardianBak[msg.sender] = info;\n    }\n\n    // Given the owner's address, query the corresponding accountName\n    function getAccountNameByOwner(address _owner) external view override returns (bytes32) {\n        return ownerToName[_owner];\n    }\n\n    // Given the accountName, query the addresses of the owner and operator\n    function getOwnerByAccountName(bytes32 accountName) external view override returns (address) {\n        return nameToOwner[accountName];\n    }\n\n    // Given the accountName, query the newly-appointed operator\n    function getSuccessor(address _owner) external view override returns (address) {\n        return ownerToSuccessor[_owner];\n    }\n\n    function getGuardian(address _owner) external view override returns (address) {\n        return ownerToGuardian[_owner];\n    }\n\n    function getDefaultGuardian() external view override returns (address) {\n        return defaultGuardian;\n    }\n\n    function setSpace(address _newLogic) external override {\n        require(msg.sender == owner);\n        spaceLogic = _newLogic;\n    }\n\n    function getSpaceLogic() external view override returns (address) {\n        return spaceLogic;\n    }\n\n    // Create Space, only owner\n    function newSpace(bytes32 accountName, address _owner) internal returns (address) {\n        //call Space contract\n        bytes32 salt = keccak256(abi.encode(accountName));\n        Space space = new Space{salt : salt}(_owner, address(this));\n        return address(space);\n    }\n\n    function getSpaceByAccountName(bytes32 accountName) external view override returns (address) {\n        return spaceTable[accountName];\n    }\n\n    function getSpaceByOwner(address _owner) external view override returns (address) {\n        bytes32 accountName = ownerToName[_owner];\n        return spaceTable[accountName];\n    }\n}\n",
  "sourcePath": "/Users/matrix/github/std_contracts/contracts/Registry.sol",
  "compiler": {
    "name": "solc",
    "version": "0.8.1+commit.df193b15.Emscripten.clang"
  },
  "schemaVersion": "3.2.4",
  "updatedAt": "2021-02-03T10:37:19.290Z",
  "devdoc": {
    "kind": "dev",
    "methods": {},
    "version": 1
  },
  "userdoc": {
    "kind": "user",
    "methods": {},
    "version": 1
  }
}