{
  "contractName": "SpaceLogic",
  "abi": [
    {
      "anonymous": false,
      "inputs": [
        {
          "indexed": true,
          "internalType": "uint64",
          "name": "id",
          "type": "uint64"
        },
        {
          "indexed": true,
          "internalType": "address",
          "name": "audience",
          "type": "address"
        },
        {
          "indexed": false,
          "internalType": "bool",
          "name": "interested",
          "type": "bool"
        }
      ],
      "name": "ClickAd",
      "type": "event"
    },
    {
      "anonymous": false,
      "inputs": [
        {
          "indexed": true,
          "internalType": "uint64",
          "name": "threadId",
          "type": "uint64"
        },
        {
          "indexed": true,
          "internalType": "address",
          "name": "commenter",
          "type": "address"
        },
        {
          "indexed": false,
          "internalType": "bytes",
          "name": "content",
          "type": "bytes"
        },
        {
          "indexed": true,
          "internalType": "address",
          "name": "rewardTo",
          "type": "address"
        },
        {
          "indexed": false,
          "internalType": "uint256",
          "name": "rewardAmount",
          "type": "uint256"
        },
        {
          "indexed": false,
          "internalType": "address",
          "name": "rewardCoin",
          "type": "address"
        }
      ],
      "name": "NewComment",
      "type": "event"
    },
    {
      "anonymous": false,
      "inputs": [
        {
          "indexed": true,
          "internalType": "uint64",
          "name": "threadId",
          "type": "uint64"
        },
        {
          "indexed": false,
          "internalType": "bytes",
          "name": "content",
          "type": "bytes"
        }
      ],
      "name": "NewThread",
      "type": "event"
    },
    {
      "anonymous": false,
      "inputs": [
        {
          "indexed": true,
          "internalType": "uint64",
          "name": "threadId",
          "type": "uint64"
        },
        {
          "indexed": true,
          "internalType": "bytes32",
          "name": "accountA",
          "type": "bytes32"
        },
        {
          "indexed": true,
          "internalType": "bytes32",
          "name": "accountB",
          "type": "bytes32"
        }
      ],
      "name": "Notify",
      "type": "event"
    },
    {
      "anonymous": false,
      "inputs": [
        {
          "indexed": true,
          "internalType": "uint64",
          "name": "id",
          "type": "uint64"
        },
        {
          "indexed": false,
          "internalType": "string",
          "name": "detail",
          "type": "string"
        },
        {
          "indexed": false,
          "internalType": "uint256",
          "name": "numAudience",
          "type": "uint256"
        },
        {
          "indexed": false,
          "internalType": "uint256",
          "name": "coinsPerAudience",
          "type": "uint256"
        },
        {
          "indexed": false,
          "internalType": "address",
          "name": "coinType",
          "type": "address"
        },
        {
          "indexed": false,
          "internalType": "uint256[]",
          "name": "bloomfilter",
          "type": "uint256[]"
        },
        {
          "indexed": false,
          "internalType": "uint256",
          "name": "endTime",
          "type": "uint256"
        }
      ],
      "name": "PublishAd",
      "type": "event"
    },
    {
      "anonymous": false,
      "inputs": [
        {
          "indexed": true,
          "internalType": "uint64",
          "name": "id",
          "type": "uint64"
        },
        {
          "indexed": false,
          "internalType": "string",
          "name": "detail",
          "type": "string"
        },
        {
          "indexed": false,
          "internalType": "uint256",
          "name": "optionCount",
          "type": "uint256"
        },
        {
          "indexed": false,
          "internalType": "uint256",
          "name": "endTime",
          "type": "uint256"
        }
      ],
      "name": "StartVote",
      "type": "event"
    },
    {
      "anonymous": false,
      "inputs": [
        {
          "indexed": true,
          "internalType": "address",
          "name": "voter",
          "type": "address"
        },
        {
          "indexed": false,
          "internalType": "uint256",
          "name": "voteId",
          "type": "uint256"
        },
        {
          "indexed": false,
          "internalType": "uint256",
          "name": "optionId",
          "type": "uint256"
        },
        {
          "indexed": false,
          "internalType": "uint256",
          "name": "coinAmount",
          "type": "uint256"
        }
      ],
      "name": "Vote",
      "type": "event"
    },
    {
      "inputs": [],
      "name": "nextAdId",
      "outputs": [
        {
          "internalType": "uint64",
          "name": "",
          "type": "uint64"
        }
      ],
      "stateMutability": "view",
      "type": "function"
    },
    {
      "inputs": [],
      "name": "nextThreadId",
      "outputs": [
        {
          "internalType": "uint64",
          "name": "",
          "type": "uint64"
        }
      ],
      "stateMutability": "view",
      "type": "function"
    },
    {
      "inputs": [],
      "name": "nextVoteId",
      "outputs": [
        {
          "internalType": "uint64",
          "name": "",
          "type": "uint64"
        }
      ],
      "stateMutability": "view",
      "type": "function"
    },
    {
      "inputs": [
        {
          "internalType": "address",
          "name": "_owner",
          "type": "address"
        }
      ],
      "name": "switchToNewOwner",
      "outputs": [],
      "stateMutability": "nonpayable",
      "type": "function"
    },
    {
      "inputs": [],
      "name": "getOwner",
      "outputs": [
        {
          "internalType": "address",
          "name": "",
          "type": "address"
        }
      ],
      "stateMutability": "view",
      "type": "function"
    },
    {
      "inputs": [
        {
          "internalType": "bytes32[]",
          "name": "badIdList",
          "type": "bytes32[]"
        }
      ],
      "name": "addToBlacklist",
      "outputs": [],
      "stateMutability": "nonpayable",
      "type": "function"
    },
    {
      "inputs": [
        {
          "internalType": "bytes32[]",
          "name": "goodIdList",
          "type": "bytes32[]"
        }
      ],
      "name": "removeFromBlacklist",
      "outputs": [],
      "stateMutability": "nonpayable",
      "type": "function"
    },
    {
      "inputs": [
        {
          "internalType": "address",
          "name": "agent",
          "type": "address"
        }
      ],
      "name": "addBlacklistAgent",
      "outputs": [],
      "stateMutability": "nonpayable",
      "type": "function"
    },
    {
      "inputs": [],
      "name": "removeBlacklistAgent",
      "outputs": [],
      "stateMutability": "nonpayable",
      "type": "function"
    },
    {
      "inputs": [
        {
          "internalType": "bytes32",
          "name": "accountName",
          "type": "bytes32"
        }
      ],
      "name": "isInBlacklist",
      "outputs": [
        {
          "internalType": "bool",
          "name": "",
          "type": "bool"
        }
      ],
      "stateMutability": "nonpayable",
      "type": "function"
    },
    {
      "inputs": [
        {
          "internalType": "bytes",
          "name": "content",
          "type": "bytes"
        },
        {
          "internalType": "bytes32[]",
          "name": "notifyList",
          "type": "bytes32[]"
        }
      ],
      "name": "createNewThread",
      "outputs": [
        {
          "internalType": "uint64",
          "name": "",
          "type": "uint64"
        }
      ],
      "stateMutability": "nonpayable",
      "type": "function"
    },
    {
      "inputs": [
        {
          "internalType": "uint64",
          "name": "threadId",
          "type": "uint64"
        },
        {
          "internalType": "bytes",
          "name": "content",
          "type": "bytes"
        },
        {
          "internalType": "address",
          "name": "rewardTo",
          "type": "address"
        },
        {
          "internalType": "uint256",
          "name": "rewardAmount",
          "type": "uint256"
        },
        {
          "internalType": "address",
          "name": "rewardCoin",
          "type": "address"
        }
      ],
      "name": "comment",
      "outputs": [],
      "stateMutability": "nonpayable",
      "type": "function"
    },
    {
      "inputs": [],
      "name": "getNextThreadId",
      "outputs": [
        {
          "internalType": "uint64",
          "name": "",
          "type": "uint64"
        }
      ],
      "stateMutability": "view",
      "type": "function"
    },
    {
      "inputs": [],
      "name": "follow",
      "outputs": [],
      "stateMutability": "nonpayable",
      "type": "function"
    },
    {
      "inputs": [],
      "name": "unfollow",
      "outputs": [],
      "stateMutability": "nonpayable",
      "type": "function"
    },
    {
      "inputs": [
        {
          "internalType": "uint256",
          "name": "numSeconds",
          "type": "uint256"
        }
      ],
      "name": "setWarmupTime",
      "outputs": [],
      "stateMutability": "nonpayable",
      "type": "function"
    },
    {
      "inputs": [],
      "name": "getWarmupTime",
      "outputs": [
        {
          "internalType": "uint256",
          "name": "",
          "type": "uint256"
        }
      ],
      "stateMutability": "view",
      "type": "function"
    },
    {
      "inputs": [
        {
          "internalType": "string",
          "name": "detail",
          "type": "string"
        },
        {
          "internalType": "uint8",
          "name": "optionCount",
          "type": "uint8"
        },
        {
          "internalType": "uint8",
          "name": "voteConfig",
          "type": "uint8"
        },
        {
          "internalType": "uint256",
          "name": "endTime",
          "type": "uint256"
        },
        {
          "internalType": "uint64",
          "name": "deleteOldId",
          "type": "uint64"
        }
      ],
      "name": "startVote",
      "outputs": [
        {
          "internalType": "uint64",
          "name": "",
          "type": "uint64"
        }
      ],
      "stateMutability": "nonpayable",
      "type": "function"
    },
    {
      "inputs": [
        {
          "internalType": "uint64",
          "name": "voteId",
          "type": "uint64"
        },
        {
          "internalType": "uint8",
          "name": "optionId",
          "type": "uint8"
        },
        {
          "internalType": "uint256",
          "name": "coinAmount",
          "type": "uint256"
        }
      ],
      "name": "vote",
      "outputs": [],
      "stateMutability": "nonpayable",
      "type": "function"
    },
    {
      "inputs": [
        {
          "internalType": "uint64",
          "name": "voteId",
          "type": "uint64"
        }
      ],
      "name": "getVoteResult",
      "outputs": [
        {
          "internalType": "uint256[]",
          "name": "",
          "type": "uint256[]"
        }
      ],
      "stateMutability": "view",
      "type": "function"
    },
    {
      "inputs": [],
      "name": "getNextVoteId",
      "outputs": [
        {
          "internalType": "uint64",
          "name": "",
          "type": "uint64"
        }
      ],
      "stateMutability": "view",
      "type": "function"
    },
    {
      "inputs": [
        {
          "internalType": "address",
          "name": "coin",
          "type": "address"
        }
      ],
      "name": "setVoteCoin",
      "outputs": [],
      "stateMutability": "nonpayable",
      "type": "function"
    },
    {
      "inputs": [],
      "name": "getVoteCoin",
      "outputs": [
        {
          "internalType": "address",
          "name": "",
          "type": "address"
        }
      ],
      "stateMutability": "view",
      "type": "function"
    }
  ],
  "bytecode": "0x608060405234801561001057600080fd5b5061292d806100206000396000f3fe608060405234801561001057600080fd5b506004361061014d5760003560e01c80637865bc11116100c3578063a433ccc71161007c578063a433ccc714610352578063d00ad4531461035c578063e207d04d14610378578063e841b39814610396578063f33fb635146103b4578063f3be5ec3146103e45761014d565b80637865bc11146102c8578063893d20e8146102d25780638f83ade7146102f05780639922b6ac1461030e5780639dc774841461032a578063a25ee380146103485761014d565b80634c048cbc116101155780634c048cbc146101f657806351ced09214610226578063531005ba14610244578063536950f2146102745780635490688014610290578063574f4b09146102ac5761014d565b80630c9fb95c1461015257806318d5be2f146101825780631a8bb68d146101a057806329ac1f18146101be57806347376eb5146101da575b600080fd5b61016c60048036038101906101679190611e83565b610400565b60405161017991906122be565b60405180910390f35b61018a610539565b60405161019791906123ad565b60405180910390f35b6101a8610557565b6040516101b591906123ad565b60405180910390f35b6101d860048036038101906101d39190611dc3565b610571565b005b6101f460048036038101906101ef9190611e15565b61060d565b005b610210600480360381019061020b9190611f1c565b61087e565b60405161021d91906123ad565b60405180910390f35b61022e610adc565b60405161023b91906123ad565b60405180910390f35b61025e60048036038101906102599190611fd4565b610afa565b60405161026b919061229c565b60405180910390f35b61028e6004803603810190610289919061208c565b610c79565b005b6102aa60048036038101906102a59190611dc3565b611142565b005b6102c660048036038101906102c19190611ffd565b611186565b005b6102d06114b7565b005b6102da61155e565b6040516102e7919061224a565b60405180910390f35b6102f8611587565b60405161030591906123ad565b60405180910390f35b61032860048036038101906103239190611dc3565b6115a1565b005b61033261163e565b60405161033f9190612392565b60405180910390f35b610350611648565b005b61035a6116e4565b005b61037660048036038101906103719190611fab565b6117aa565b005b610380611819565b60405161038d91906123ad565b60405180910390f35b61039e611833565b6040516103ab919061224a565b60405180910390f35b6103ce60048036038101906103c99190611eac565b61185d565b6040516103db91906123ad565b60405180910390f35b6103fe60048036038101906103f99190611e15565b611b36565b005b60006008600083815260200190815260200160002060009054906101000a900460ff16806105325750600073ffffffffffffffffffffffffffffffffffffffff16600560009054906101000a900473ffffffffffffffffffffffffffffffffffffffff1673ffffffffffffffffffffffffffffffffffffffff16141580156105315750600560009054906101000a900473ffffffffffffffffffffffffffffffffffffffff1673ffffffffffffffffffffffffffffffffffffffff16630c9fb95c836040518263ffffffff1660e01b81526004016104de91906122d9565b602060405180830381600087803b1580156104f857600080fd5b505af115801561050c573d6000803e3d6000fd5b505050506040513d601f19601f820116820180604052508101906105309190611e5a565b5b5b9050919050565b6000600460089054906101000a900467ffffffffffffffff16905090565b600460109054906101000a900467ffffffffffffffff1681565b60008054906101000a900473ffffffffffffffffffffffffffffffffffffffff1673ffffffffffffffffffffffffffffffffffffffff163373ffffffffffffffffffffffffffffffffffffffff16146105c957600080fd5b80600560006101000a81548173ffffffffffffffffffffffffffffffffffffffff021916908373ffffffffffffffffffffffffffffffffffffffff16021790555050565b60008054906101000a900473ffffffffffffffffffffffffffffffffffffffff1673ffffffffffffffffffffffffffffffffffffffff163373ffffffffffffffffffffffffffffffffffffffff161461066557600080fd5b60005b828290508110156108795760008383838181106106ae577f4e487b7100000000000000000000000000000000000000000000000000000000600052603260045260246000fd5b905060200201359050600115156008600083815260200190815260200160002060009054906101000a900460ff161515146108655760016008600083815260200190815260200160002060006101000a81548160ff0219169083151502179055506000600160009054906101000a900473ffffffffffffffffffffffffffffffffffffffff1673ffffffffffffffffffffffffffffffffffffffff166394ee7d68836040518263ffffffff1660e01b815260040161076c91906122d9565b60206040518083038186803b15801561078457600080fd5b505afa158015610798573d6000803e3d6000fd5b505050506040513d601f19601f820116820180604052508101906107bc9190611dec565b9050600660008273ffffffffffffffffffffffffffffffffffffffff1673ffffffffffffffffffffffffffffffffffffffff16815260200190815260200160002060006101000a81549067ffffffffffffffff0219169055600760008273ffffffffffffffffffffffffffffffffffffffff1673ffffffffffffffffffffffffffffffffffffffff16815260200190815260200160002060006101000a81549060ff0219169055505b5080806108719061272b565b915050610668565b505050565b60008060009054906101000a900473ffffffffffffffffffffffffffffffffffffffff1673ffffffffffffffffffffffffffffffffffffffff163373ffffffffffffffffffffffffffffffffffffffff161480156108db57504283115b6108e457600080fd5b6000600460089054906101000a900467ffffffffffffffff1690508067ffffffffffffffff168367ffffffffffffffff1610156109fb576000600960008567ffffffffffffffff1667ffffffffffffffff168152602001908152602001600020549050600081905060008160ff16146109cd5760005b8160ff168160ff1610156109cb57600a60008260ff1660088967ffffffffffffffff16901b1760405160200161099091906123ad565b6040516020818303038152906040528051906020012081526020019081526020016000206000905580806109c3906127a5565b91505061095a565b505b600960008667ffffffffffffffff1667ffffffffffffffff1681526020019081526020016000206000905550505b8560ff1660088660ff16901b60ff16601086901b1717600960008367ffffffffffffffff1667ffffffffffffffff168152602001908152602001600020819055508067ffffffffffffffff167fb3bda5c0158508f57f62321545eab13f6d87f6507eb6dd6cb639abfc67b4a3ee888887604051610a7a93929190612354565b60405180910390a26004600881819054906101000a900467ffffffffffffffff1680929190610aa890612774565b91906101000a81548167ffffffffffffffff021916908367ffffffffffffffff160217905550508091505095945050505050565b6000600460009054906101000a900467ffffffffffffffff16905090565b60606000600960008467ffffffffffffffff1667ffffffffffffffff168152602001908152602001600020549050600081905060008160ff161415610b3e57600080fd5b60008160ff1667ffffffffffffffff811115610b83577f4e487b7100000000000000000000000000000000000000000000000000000000600052604160045260246000fd5b604051908082528060200260200182016040528015610bb15781602001602082028036833780820191505090505b50905060005b8260ff168160ff161015610c6d57600a60008260ff1660088967ffffffffffffffff16901b17604051602001610bed91906123ad565b60405160208183030381529060405280519060200120815260200190815260200160002054828260ff1681518110610c4e577f4e487b7100000000000000000000000000000000000000000000000000000000600052603260045260246000fd5b6020026020010181815250508080610c65906127a5565b915050610bb7565b50809350505050919050565b600060011515600760003373ffffffffffffffffffffffffffffffffffffffff1673ffffffffffffffffffffffffffffffffffffffff16815260200190815260200160002060009054906101000a900460ff1615151415610cdd5760019050610e03565b42600354600660003373ffffffffffffffffffffffffffffffffffffffff1673ffffffffffffffffffffffffffffffffffffffff16815260200190815260200160002060009054906101000a900467ffffffffffffffff1667ffffffffffffffff16610d49919061252e565b1115610e0257600190506001600760003373ffffffffffffffffffffffffffffffffffffffff1673ffffffffffffffffffffffffffffffffffffffff16815260200190815260200160002060006101000a81548160ff021916908315150217905550600660003373ffffffffffffffffffffffffffffffffffffffff1673ffffffffffffffffffffffffffffffffffffffff16815260200190815260200160002060006101000a81549067ffffffffffffffff02191690555b5b801561113c576000600960008667ffffffffffffffff1667ffffffffffffffff1681526020019081526020016000205490506000601082901c90506000600883901c9050600083905060008367ffffffffffffffff1614158015610e7057508267ffffffffffffffff1642105b8015610e8157508060ff168760ff16105b1561113757600180831660ff161480610ee85750600073ffffffffffffffffffffffffffffffffffffffff16600260009054906101000a900473ffffffffffffffffffffffffffffffffffffffff1673ffffffffffffffffffffffffffffffffffffffff16145b15610fa9576001600a60008960ff1660088c67ffffffffffffffff16901b17604051602001610f1791906123ad565b6040516020818303038152906040528051906020012081526020019081526020016000206000828254610f4a919061252e565b925050819055503373ffffffffffffffffffffffffffffffffffffffff167f6c7eb2743ec28489909706ea440d909129004996be657d36c6e9add778546abf89896001604051610f9c939291906123c8565b60405180910390a2611136565b600260009054906101000a900473ffffffffffffffffffffffffffffffffffffffff1673ffffffffffffffffffffffffffffffffffffffff166323b872dd3360008054906101000a900473ffffffffffffffffffffffffffffffffffffffff16896040518463ffffffff1660e01b815260040161102893929190612265565b602060405180830381600087803b15801561104257600080fd5b505af1158015611056573d6000803e3d6000fd5b505050506040513d601f19601f8201168201806040525081019061107a9190611e5a565b156111355785600a60008960ff1660088c67ffffffffffffffff16901b176040516020016110a891906123ad565b60405160208183030381529060405280519060200120815260200190815260200160002060008282546110db919061252e565b925050819055503373ffffffffffffffffffffffffffffffffffffffff167f6c7eb2743ec28489909706ea440d909129004996be657d36c6e9add778546abf89898960405161112c939291906123ff565b60405180910390a25b5b5b505050505b50505050565b80600260006101000a81548173ffffffffffffffffffffffffffffffffffffffff021916908373ffffffffffffffffffffffffffffffffffffffff16021790555050565b60008060009054906101000a900473ffffffffffffffffffffffffffffffffffffffff1673ffffffffffffffffffffffffffffffffffffffff163373ffffffffffffffffffffffffffffffffffffffff1614156111e6576001905061136f565b60011515600760003373ffffffffffffffffffffffffffffffffffffffff1673ffffffffffffffffffffffffffffffffffffffff16815260200190815260200160002060009054906101000a900460ff1615151415611248576001905061136e565b42600354600660003373ffffffffffffffffffffffffffffffffffffffff1673ffffffffffffffffffffffffffffffffffffffff16815260200190815260200160002060009054906101000a900467ffffffffffffffff1667ffffffffffffffff166112b4919061252e565b111561136d57600190506001600760003373ffffffffffffffffffffffffffffffffffffffff1673ffffffffffffffffffffffffffffffffffffffff16815260200190815260200160002060006101000a81548160ff021916908315150217905550600660003373ffffffffffffffffffffffffffffffffffffffff1673ffffffffffffffffffffffffffffffffffffffff16815260200190815260200160002060006101000a81549067ffffffffffffffff02191690555b5b5b8080156113a55750600460009054906101000a900467ffffffffffffffff1667ffffffffffffffff168667ffffffffffffffff16105b156114af578173ffffffffffffffffffffffffffffffffffffffff166323b872dd3386866040518463ffffffff1660e01b81526004016113e793929190612265565b602060405180830381600087803b15801561140157600080fd5b505af1158015611415573d6000803e3d6000fd5b505050506040513d601f19601f820116820180604052508101906114399190611e5a565b508373ffffffffffffffffffffffffffffffffffffffff163373ffffffffffffffffffffffffffffffffffffffff168767ffffffffffffffff167f3211512d029bc0bcfb1238ddb445a42da1515d7cea2212caea6160a94d1ce07b8887876040516114a693929190612316565b60405180910390a45b505050505050565b600660003373ffffffffffffffffffffffffffffffffffffffff1673ffffffffffffffffffffffffffffffffffffffff16815260200190815260200160002060006101000a81549067ffffffffffffffff0219169055600760003373ffffffffffffffffffffffffffffffffffffffff1673ffffffffffffffffffffffffffffffffffffffff16815260200190815260200160002060006101000a81549060ff0219169055565b60008060009054906101000a900473ffffffffffffffffffffffffffffffffffffffff16905090565b600460009054906101000a900467ffffffffffffffff1681565b600160009054906101000a900473ffffffffffffffffffffffffffffffffffffffff1673ffffffffffffffffffffffffffffffffffffffff163373ffffffffffffffffffffffffffffffffffffffff16146115fb57600080fd5b806000806101000a81548173ffffffffffffffffffffffffffffffffffffffff021916908373ffffffffffffffffffffffffffffffffffffffff16021790555050565b6000600354905090565b60008054906101000a900473ffffffffffffffffffffffffffffffffffffffff1673ffffffffffffffffffffffffffffffffffffffff163373ffffffffffffffffffffffffffffffffffffffff16146116a057600080fd5b6000600560006101000a81548173ffffffffffffffffffffffffffffffffffffffff021916908373ffffffffffffffffffffffffffffffffffffffff160217905550565b60011515600760003373ffffffffffffffffffffffffffffffffffffffff1673ffffffffffffffffffffffffffffffffffffffff16815260200190815260200160002060009054906101000a900460ff161515141561174257600080fd5b42600660003373ffffffffffffffffffffffffffffffffffffffff1673ffffffffffffffffffffffffffffffffffffffff16815260200190815260200160002060006101000a81548167ffffffffffffffff021916908367ffffffffffffffff160217905550565b60008054906101000a900473ffffffffffffffffffffffffffffffffffffffff1673ffffffffffffffffffffffffffffffffffffffff163373ffffffffffffffffffffffffffffffffffffffff16148015611806575060008114155b61180f57600080fd5b8060038190555050565b600460089054906101000a900467ffffffffffffffff1681565b6000600260009054906101000a900473ffffffffffffffffffffffffffffffffffffffff16905090565b60008060009054906101000a900473ffffffffffffffffffffffffffffffffffffffff1673ffffffffffffffffffffffffffffffffffffffff163373ffffffffffffffffffffffffffffffffffffffff16146118b857600080fd5b6000600460009054906101000a900467ffffffffffffffff1690508067ffffffffffffffff167f31a5daf67e569d485c3a86218aaaadc1a3d3c8367abfbbc24d0f00818f163b158660405161190d91906122f4565b60405180910390a2600084849050905060005b600260018361192f919061252e565b6119399190612584565b811015611adc5781600182600261195091906125b5565b61195a919061252e565b14156119ed576000801916868683600261197491906125b5565b8181106119aa577f4e487b7100000000000000000000000000000000000000000000000000000000600052603260045260246000fd5b905060200201358467ffffffffffffffff167f96a8516631d08a77d3a1163bf2bf44e53b3f0a3a986dc5669cc7ce384d471b6960405160405180910390a4611ac9565b858560018360026119fe91906125b5565b611a08919061252e565b818110611a3e577f4e487b7100000000000000000000000000000000000000000000000000000000600052603260045260246000fd5b905060200201358686836002611a5491906125b5565b818110611a8a577f4e487b7100000000000000000000000000000000000000000000000000000000600052603260045260246000fd5b905060200201358467ffffffffffffffff167f96a8516631d08a77d3a1163bf2bf44e53b3f0a3a986dc5669cc7ce384d471b6960405160405180910390a45b8080611ad49061272b565b915050611920565b506004600081819054906101000a900467ffffffffffffffff1680929190611b0390612774565b91906101000a81548167ffffffffffffffff021916908367ffffffffffffffff1602179055505081925050509392505050565b60008054906101000a900473ffffffffffffffffffffffffffffffffffffffff1673ffffffffffffffffffffffffffffffffffffffff163373ffffffffffffffffffffffffffffffffffffffff1614611b8e57600080fd5b60005b82829050811015611c115760086000848484818110611bd9577f4e487b7100000000000000000000000000000000000000000000000000000000600052603260045260246000fd5b90506020020135815260200190815260200160002060006101000a81549060ff02191690558080611c099061272b565b915050611b91565b505050565b6000611c29611c248461245b565b612436565b905082815260208101848484011115611c4157600080fd5b611c4c8482856126b8565b509392505050565b6000611c67611c628461248c565b612436565b905082815260208101848484011115611c7f57600080fd5b611c8a8482856126b8565b509392505050565b600081359050611ca18161286d565b92915050565b600081519050611cb68161286d565b92915050565b60008083601f840112611cce57600080fd5b8235905067ffffffffffffffff811115611ce757600080fd5b602083019150836020820283011115611cff57600080fd5b9250929050565b600081519050611d1581612884565b92915050565b600081359050611d2a8161289b565b92915050565b600082601f830112611d4157600080fd5b8135611d51848260208601611c16565b91505092915050565b600082601f830112611d6b57600080fd5b8135611d7b848260208601611c54565b91505092915050565b600081359050611d93816128b2565b92915050565b600081359050611da8816128c9565b92915050565b600081359050611dbd816128e0565b92915050565b600060208284031215611dd557600080fd5b6000611de384828501611c92565b91505092915050565b600060208284031215611dfe57600080fd5b6000611e0c84828501611ca7565b91505092915050565b60008060208385031215611e2857600080fd5b600083013567ffffffffffffffff811115611e4257600080fd5b611e4e85828601611cbc565b92509250509250929050565b600060208284031215611e6c57600080fd5b6000611e7a84828501611d06565b91505092915050565b600060208284031215611e9557600080fd5b6000611ea384828501611d1b565b91505092915050565b600080600060408486031215611ec157600080fd5b600084013567ffffffffffffffff811115611edb57600080fd5b611ee786828701611d30565b935050602084013567ffffffffffffffff811115611f0457600080fd5b611f1086828701611cbc565b92509250509250925092565b600080600080600060a08688031215611f3457600080fd5b600086013567ffffffffffffffff811115611f4e57600080fd5b611f5a88828901611d5a565b9550506020611f6b88828901611dae565b9450506040611f7c88828901611dae565b9350506060611f8d88828901611d84565b9250506080611f9e88828901611d99565b9150509295509295909350565b600060208284031215611fbd57600080fd5b6000611fcb84828501611d84565b91505092915050565b600060208284031215611fe657600080fd5b6000611ff484828501611d99565b91505092915050565b600080600080600060a0868803121561201557600080fd5b600061202388828901611d99565b955050602086013567ffffffffffffffff81111561204057600080fd5b61204c88828901611d30565b945050604061205d88828901611c92565b935050606061206e88828901611d84565b925050608061207f88828901611c92565b9150509295509295909350565b6000806000606084860312156120a157600080fd5b60006120af86828701611d99565b93505060206120c086828701611dae565b92505060406120d186828701611d84565b9150509250925092565b60006120e783836121ff565b60208301905092915050565b6120fc8161260f565b82525050565b600061210d826124cd565b61211781856124fb565b9350612122836124bd565b8060005b8381101561215357815161213a88826120db565b9750612145836124ee565b925050600181019050612126565b5085935050505092915050565b61216981612621565b82525050565b6121788161262d565b82525050565b6000612189826124d8565b612193818561250c565b93506121a38185602086016126c7565b6121ac8161285c565b840191505092915050565b6121c081612682565b82525050565b60006121d1826124e3565b6121db818561251d565b93506121eb8185602086016126c7565b6121f48161285c565b840191505092915050565b61220881612657565b82525050565b61221781612657565b82525050565b61222681612694565b82525050565b61223581612661565b82525050565b612244816126a6565b82525050565b600060208201905061225f60008301846120f3565b92915050565b600060608201905061227a60008301866120f3565b61228760208301856120f3565b612294604083018461220e565b949350505050565b600060208201905081810360008301526122b68184612102565b905092915050565b60006020820190506122d36000830184612160565b92915050565b60006020820190506122ee600083018461216f565b92915050565b6000602082019050818103600083015261230e818461217e565b905092915050565b60006060820190508181036000830152612330818661217e565b905061233f602083018561220e565b61234c60408301846120f3565b949350505050565b6000606082019050818103600083015261236e81866121c6565b905061237d602083018561223b565b61238a604083018461220e565b949350505050565b60006020820190506123a7600083018461220e565b92915050565b60006020820190506123c2600083018461222c565b92915050565b60006060820190506123dd600083018661221d565b6123ea602083018561223b565b6123f760408301846121b7565b949350505050565b6000606082019050612414600083018661221d565b612421602083018561223b565b61242e604083018461220e565b949350505050565b6000612440612451565b905061244c82826126fa565b919050565b6000604051905090565b600067ffffffffffffffff8211156124765761247561282d565b5b61247f8261285c565b9050602081019050919050565b600067ffffffffffffffff8211156124a7576124a661282d565b5b6124b08261285c565b9050602081019050919050565b6000819050602082019050919050565b600081519050919050565b600081519050919050565b600081519050919050565b6000602082019050919050565b600082825260208201905092915050565b600082825260208201905092915050565b600082825260208201905092915050565b600061253982612657565b915061254483612657565b9250827fffffffffffffffffffffffffffffffffffffffffffffffffffffffffffffffff03821115612579576125786127cf565b5b828201905092915050565b600061258f82612657565b915061259a83612657565b9250826125aa576125a96127fe565b5b828204905092915050565b60006125c082612657565b91506125cb83612657565b9250817fffffffffffffffffffffffffffffffffffffffffffffffffffffffffffffffff0483118215151615612604576126036127cf565b5b828202905092915050565b600061261a82612637565b9050919050565b60008115159050919050565b6000819050919050565b600073ffffffffffffffffffffffffffffffffffffffff82169050919050565b6000819050919050565b600067ffffffffffffffff82169050919050565b600060ff82169050919050565b600061268d82612657565b9050919050565b600061269f82612661565b9050919050565b60006126b182612675565b9050919050565b82818337600083830152505050565b60005b838110156126e55780820151818401526020810190506126ca565b838111156126f4576000848401525b50505050565b6127038261285c565b810181811067ffffffffffffffff821117156127225761272161282d565b5b80604052505050565b600061273682612657565b91507fffffffffffffffffffffffffffffffffffffffffffffffffffffffffffffffff821415612769576127686127cf565b5b600182019050919050565b600061277f82612661565b915067ffffffffffffffff82141561279a576127996127cf565b5b600182019050919050565b60006127b082612675565b915060ff8214156127c4576127c36127cf565b5b600182019050919050565b7f4e487b7100000000000000000000000000000000000000000000000000000000600052601160045260246000fd5b7f4e487b7100000000000000000000000000000000000000000000000000000000600052601260045260246000fd5b7f4e487b7100000000000000000000000000000000000000000000000000000000600052604160045260246000fd5b6000601f19601f8301169050919050565b6128768161260f565b811461288157600080fd5b50565b61288d81612621565b811461289857600080fd5b50565b6128a48161262d565b81146128af57600080fd5b50565b6128bb81612657565b81146128c657600080fd5b50565b6128d281612661565b81146128dd57600080fd5b50565b6128e981612675565b81146128f457600080fd5b5056fea26469706673582212208d4df5ca18599c25e0f75abfa643afaa2d262434b8644bef24d11ff6f384829964736f6c63430008010033",
  "immutableReferences": {},
  "source": "// SPDX-License-Identifier: MIT\npragma solidity 0.8.1;\n\nimport \"./interfaces/IMySpace.sol\";\nimport \"./interfaces/IRegistry.sol\";\nimport \"./interfaces/IBlackListAgent.sol\";\n\ncontract SpaceLogic is IMySpace {\n\n    address private owner;\n    address private chirp;\n    address private voteCoin;\n    uint private warmupTime;\n    uint64 public nextThreadId;\n    uint64 public nextVoteId;\n    uint64 public nextAdId;\n    address private blackListAgent;\n\n    mapping(address => uint64/*timestamp*/) immatureFollowerTable;\n    mapping(address => bool) followerTable;\n    //accountName in blackList cannot be follower, if it already be, remove it\n    mapping(bytes32 => bool) blackList;\n    //voteConfig: 8bit, lsb represents if one vote only one ticket, silence vote coinAmount param;\n    mapping(uint64/*vote id*/ => uint /*64bit end time | 8bit voteConfig | 8bit optionCount*/) voteTable;\n    mapping(bytes32 => uint) voteTallyTable;\n\n    //todo: only call by register, when change owner\n    function switchToNewOwner(address _owner) external override {\n        require(msg.sender == chirp);\n        owner = _owner;\n    }\n    // Get the owner of this contract\n    function getOwner() external view override returns (address) {\n        return owner;\n    }\n    // Add the accounts in badIdList into blacklist. operator-only.\n    function addToBlacklist(bytes32[] calldata badIdList) external override{\n        require(msg.sender == owner);\n        for (uint i = 0; i < badIdList.length; i++) {\n            bytes32 acc = badIdList[i];\n            if (blackList[acc] != true) {\n                blackList[acc] = true;\n                address _owner = IRegistry(chirp).getOwnerByAccountName(acc);\n                delete immatureFollowerTable[_owner];\n                delete followerTable[_owner];\n            }\n        }\n    }\n    // Remove the accounts in goodIdList from blacklist. owner-only.\n    function removeFromBlacklist(bytes32[] calldata goodIdList) external override{\n        require(msg.sender == owner);\n        for (uint i = 0; i < goodIdList.length; i++) {\n            delete blackList[goodIdList[i]];\n        }\n    }\n    // Add another contract as blacklist agent. owner-only.\n    function addBlacklistAgent(address agent) external override{\n        require(msg.sender == owner);\n        blackListAgent = agent;\n    }\n    // Stop taking another contract as blacklist agent. owner-only.\n    //todo: only support one agent now;\n    function removeBlacklistAgent() external override{\n        require(msg.sender == owner);\n        blackListAgent = address(0);\n    }\n    // Query wether an acc is in the black list\n    function isInBlacklist(bytes32 accountName) public override returns (bool) {\n        return blackList[accountName] || (blackListAgent != address(0) && IBlackListAgent(blackListAgent).isInBlacklist(accountName));\n    }\n\n    // Create a new thread. Only the owner can call this function. Returns the new thread's id\n    function createNewThread(bytes memory content, bytes32[] calldata notifyList) external override returns (uint64) {\n        require(msg.sender == owner);\n        uint64 threadId = nextThreadId;\n        emit NewThread(threadId, content);\n        uint length = notifyList.length;\n        for (uint i = 0; i < (length + 1) / 2; i++) {\n            if (2 * i + 1 == length) {\n                emit Notify(threadId, notifyList[2 * i], bytes32(\"\"));\n            } else {\n                emit Notify(threadId, notifyList[2 * i], notifyList[2 * i + 1]);\n            }\n        }\n        nextThreadId++;\n        return threadId;\n    }\n    // Add a comment under a thread. Only the owner and the followers can call this function\n    function comment(uint64 threadId, bytes memory content, address rewardTo, uint rewardAmount, address rewardCoin) external override{\n        bool valid;\n        if (msg.sender == owner) {\n            valid = true;\n        } else if (followerTable[msg.sender] == true) {\n            valid = true;\n        } else if (immatureFollowerTable[msg.sender] + warmupTime > block.timestamp) {\n            valid = true;\n            followerTable[msg.sender] = true;\n            delete immatureFollowerTable[msg.sender];\n        }\n        if (valid && threadId < nextThreadId) {\n            //todo: not check transfer result\n            IERC20(rewardCoin).transferFrom(msg.sender, rewardTo, rewardAmount);\n            emit NewComment(threadId, msg.sender, content, rewardTo, rewardAmount, rewardCoin);\n        }\n    }\n    // Returns the Id of the next thread\n    function getNextThreadId() external view override returns (uint64) {\n        return nextThreadId;\n    }\n    // Follow this contract's owner.\n    function follow() external override{\n        require(followerTable[msg.sender] != true);\n        immatureFollowerTable[msg.sender] = uint64(block.timestamp);\n    }\n    // Unfollow this contract's owner.\n    function unfollow() external override{\n        delete immatureFollowerTable[msg.sender];\n        delete followerTable[msg.sender];\n    }\n    // Query all the followers, with paging support.\n    // function getFollowers(uint start, uint count) external override returns (bytes32[] memory) {\n    //     return bytes32[](0);\n    // }\n    // Set the warmup time for new followers: how many hours after becoming a follower can she comment? owner-only\n    //todo: change numHours to numSeconds\n    function setWarmupTime(uint numSeconds) external override{\n        require(msg.sender == owner && numSeconds != 0);\n        warmupTime = numSeconds;\n    }\n    // Query the warmup time for new followers\n    function getWarmupTime() external view override returns (uint) {\n        return warmupTime;\n    }\n    // Start a new vote. owner-only. Can delete an old vote to save gas.\n    function startVote(string memory detail, uint8 optionCount, uint8 voteConfig, uint endTime, uint64 deleteOldId) external override returns (uint64) {\n        require(msg.sender == owner && endTime > block.timestamp);\n        uint64 voteId = nextVoteId;\n        if (deleteOldId < voteId) {\n            //todo: deleteOldId may not end\n            uint info = voteTable[deleteOldId];\n            uint8 _optionCount = uint8(info);\n            if (_optionCount != 0) {\n                for (uint8 i = 0; i < _optionCount; i++) {\n                    delete voteTallyTable[keccak256(abi.encode(deleteOldId << 8 | i))];\n                }\n            }\n            delete voteTable[deleteOldId];\n        }\n        voteTable[voteId] = endTime << 16 | voteConfig << 8 | optionCount;\n        emit StartVote(voteId, detail, optionCount, endTime);\n        nextVoteId++;\n        return voteId;\n    }\n    // Vote for an option. followers-only.\n    //todo: optionId should be [0,optionCount)\n    function vote(uint64 voteId, uint8 optionId, uint coinAmount) external override {\n        bool isFollower;\n        if (followerTable[msg.sender] == true) {\n            isFollower = true;\n        } else if (immatureFollowerTable[msg.sender] + warmupTime > block.timestamp) {\n            isFollower = true;\n            followerTable[msg.sender] = true;\n            delete immatureFollowerTable[msg.sender];\n        }\n        if (isFollower) {\n            uint info = voteTable[voteId];\n            uint64 endTime = uint64(info >> 16);\n            uint8 config = uint8(info >> 8);\n            uint8 optionCount = uint8(info);\n            if (endTime != 0 && block.timestamp < endTime && optionId < optionCount) {\n                //todo: not like a on chain gov vote, pay coins is not refund to user, voteCoin may be address zero always;\n                if ((config & 0x01 == 0x01) || voteCoin == address(0)) {\n                    voteTallyTable[keccak256(abi.encode(voteId << 8 | optionId))] += 1;\n                    emit Vote(msg.sender, voteId, optionId, 1);\n                } else if (IERC20(voteCoin).transferFrom(msg.sender, owner, coinAmount)) {\n                    voteTallyTable[keccak256(abi.encode(voteId << 8 | optionId))] += coinAmount;\n                    emit Vote(msg.sender, voteId, optionId, coinAmount);\n                }\n            }\n        }\n    }\n    // Return the amounts of voted coins for each option.\n    function getVoteResult(uint64 voteId) external view override returns (uint[] memory) {\n        uint voteInfo = voteTable[voteId];\n        //todo: not check if vote is end\n        uint8 optionCount = uint8(voteInfo);\n        require(optionCount != 0);\n        uint[] memory tallyInfo = new uint[](optionCount);\n        for (uint8 i = 0; i < optionCount; i++) {\n            tallyInfo[i] = voteTallyTable[keccak256(abi.encode(voteId << 8 | i))];\n        }\n        return tallyInfo;\n    }\n    // Returns the Id of the next vote\n    function getNextVoteId() external view override returns (uint64) {\n        return nextVoteId;\n    }\n\n    // Publish a new Ad. owner-only. Can delete an old Ad to save gas and reclaim coins at the same time.\n    //todo:\n//    function publishAd(string memory detail, uint numAudience, uint numRejector, uint coinsPerAudience, address coinType, uint[] calldata bloomfilter, uint endTime, uint64 deleteOldId) external override returns (uint64) {\n//        uint64 id = nextAdId;\n//        nextAdId++;\n//        return id;\n//    }\n//    // Click an Ad and express whether I am interested. followers-only\n//    function clickAd(uint id, bool interested) external override{\n//\n//    }\n//    // Delete an old Ad to save gas and reclaim coins\n//    function deleteAd(uint id) external override{\n//\n//    }\n//    // Returns the Id of the next Ad\n//    function getNextAdId() external view override returns (uint64) {\n//        return nextAdId;\n//    }\n\n    function setVoteCoin(address coin) external {\n        voteCoin = coin;\n    }\n\n    function getVoteCoin() external view  returns (address) {\n        return voteCoin;\n    }\n}\n\ncontract Space {\n    address private owner;\n    address private chirp;\n\n    constructor(address _owner, address _chirp){\n        owner = _owner;\n        chirp = _chirp;\n    }\n\n    receive() external payable {}\n\n    fallback() payable external {\n        address space = IRegistry(chirp).getSpaceLogic();\n        assembly {\n            let ptr := mload(0x40)\n            let size := calldatasize()\n            calldatacopy(ptr, 0, size)\n            let result := delegatecall(gas(), space, ptr, size, 0, 0)\n            size := returndatasize()\n            returndatacopy(ptr, 0, size)\n            switch result\n            case 0 {revert(ptr, size)}\n            default {return (ptr, size)}\n        }\n    }\n}\n",
  "sourcePath": "/Users/matrix/github/std_contracts/contracts/Space.sol",
  "compiler": {
    "name": "solc",
    "version": "0.8.1+commit.df193b15.Emscripten.clang"
  },
  "schemaVersion": "3.2.4",
  "updatedAt": "2021-02-03T10:37:19.339Z",
  "devdoc": {
    "kind": "dev",
    "methods": {},
    "version": 1
  },
  "userdoc": {
    "kind": "user",
    "methods": {},
    "version": 1
  }
}